:10013F00003F0006005B004F0066006D007D00076A
:10014F00007F006F0077007C0039005E007900713E
:02015F0000009E
:1000FF00D2A7C2A77FC87E001201219001437401CD
:10010F0093F580D2A6C2A67580FDD2A7C2A77FC8DD
:02011F007E0060
:10012100D3EF9400EE940040147D707C00ED1D70BF
:0D013100011CED4C70F7EF1F70E61E80E31F
:01013E00229E
:10000300900141740193F580D2A6C2A67580FE12B9
:1000130000FF900145740193F580D2A6C2A67580B6
:10002300FB120119900147740193F580D2A6C2A671
:100033007580F7120119900149740193F580D2A6D6
:10004300C2A67580EF12011990014B740193F580DC
:10005300D2A6C2A67580DF12011990014D740193D7
:10006300F580D2A6C2A67580BF12011990014F7404
:100073000193F580D2A6C2A675807F12011974017F
:1000830093F580D2A6C2A675807F12011990014D07
:10009300740193F580D2A6C2A67580BF1201199090
:1000A300014B740193F580D2A6C2A67580DF1201BD
:1000B30019900149740193F580D2A6C2A67580EF09
:1000C300120119900147740193F580D2A6C2A67557
:1000D30080F7120119900145740193F580D2A6C2ED
:1000E300A67580FB1200FF900141740193F580D245
:0C00F300A6C2A67580FE120119020003CF
:0300000002016199
:0C016100787FE4F6D8FD758107020003EA
:00000001FF
